:020000040800F2
:10000000D8A900243903000819480008EF44000863
:1000100045030008D1040008755E000800000000D8
:100020000000000000000000000000003F4E00083B
:10003000D1090008000000001B480008B94E000864
:100040005303000853030008530300085303000838
:100050005303000853030008530300085303000828
:100060005303000853030008530300085303000818
:100070005303000853030008530300085303000808
:1000800053030008530300085303000853030008F8
:1000900053030008530300085303000853030008E8
:1000A00053030008530300085303000853030008D8
:1000B00053030008530300085303000853030008C8
:1000C00053030008530300085303000853030008B8
:1000D00053030008255E000853030008530300087B
:1000E00053030008530300080000000053030008F6
:1000F0005303000853030008530300084905000890
:100100005303000853030008530300085303000877
:100110005303000853030008530300085303000867
:100120005303000853030008530300085303000857
:100130005303000853030008530300085303000847
:1001400000000000000000000000000000000000AF
:100150005303000853030008710500085303000807
:100160005303000853030008530300085303000817
:100170005303000853030008530300080000000065
:1001800053030008530300085303000853030008F7
:10019000214B0008530300085303000853030008D1
:1001A00053030008530300085303000853030008D7
:1001B00053030008530300085303000853030008C7
:1001C00053030008530300085303000853030008B7
:1001D00053030008530300085303000853030008A7
:1001E0005303000853030008530300085303000897
:1001F0005303000853030008530300085303000887
:100200005303000853030008530300085303000876
:100210005303000853030008530300085303000866
:1002200053030008530300085303000800000000B4
:1002300053030008530300080000000053030008A4
:100240005303000853030008530300085303000836
:100250005303000853030008530300085303000826
:100260005303000853030008530300085303000816
:100270005303000853030008530300080000000064
:1002800053030008000000005303000800000000B2
:10029000000000005303000800F002F800F03CF8F2
:1002A0000AA090E8000C82448344AAF10107DA45D1
:1002B00001D100F031F8AFF2090EBAE80F0013F0E7
:1002C000010F18BFFB1A43F00103184794630100A4
:1002D000B4630100103A24BF78C878C1FAD8520735
:1002E00024BF30C830C144BF04680C6070470000B0
:1002F0000023002400250026103A28BF78C1FBD82F
:10030000520728BF30C148BF0B6070471FB505F0CA
:100310006BFF1FBD10B510BD00F0A8F81146FFF728
:10032000F5FF05F00BFF00F0C6F803B4FFF7F2FF8E
:1003300003BC05F0C7FE0000094880470948004794
:10034000FEE7FEE7FEE7FEE7FEE7FEE7FEE7FEE785
:10035000FEE7FEE704480549054A064B70470000E2
:10036000F14F000899020008D8A30024D8A900245E
:10037000D8A50024D8A5002453EA020C00F0698017
:100380002DE9F04B4FF00006002B1FBFB3FA83F5A9
:1003900003FA05F424FA05F65E4012BF1643B2FADA
:1003A00082F502FA05F4C5F120051EBF22FA05FC0C
:1003B00044EA0C04203556EA044C4FEA144418BFB2
:1003C000641C4FF000084FF00009904271EB030CE1
:1003D00039D3002919BFB1FA81F701FA07F6B0FA4B
:1003E00080F700FA07F6C7F120071EBF20FA07FCC6
:1003F00046EA0C062037B6FBF4FCA7EB0507103FD6
:1004000007F01F0BCBF120060CFA0BFB2CFA06F6BB
:1004100044BFB3460026202FA4BF5E464FF0000B1A
:100420005BEA060C08BF4FF0010B19EB0B09ABFBA5
:10043000027C48EB0608C01B06FB02CC0BFB03CC7E
:1004400071EB0C01C1E70B46024641464846BDE848
:10045000F08B13B54FF000004FF00001AFF30080B8
:10046000BDE81C407047704770477047754600F004
:100470002BF8AE4605006946534620F00700854636
:1004800018B020B5FFF766FFBDE820404FF000062A
:100490004FF000074FF000084FF0000B21F007016C
:1004A000AC46ACE8C009ACE8C009ACE8C009ACE8AF
:1004B000C0098D46704710B50446AFF30080204652
:1004C000BDE81040FFF731BF0048704778A3002413
:1004D00000BFFEE770B50446A56B284600F022FB7E
:1004E0000120287170BD70B50446A56B284600F048
:1004F00070FA0120287170BD70B50546AC6B20699B
:1005000040F004002061204600F00EFB0120207125
:1005100070BD70B50546AC6B206940F004002061E9
:10052000204600F058FA0120207170BD70B50446D5
:10053000A56B284600F0F7FA70BD70B50446A56BB0
:10054000284600F047FA70BD0748406800F0006098
:10055000B0F1006F02D10120044908704FF07460BF
:100560000149C86070470000000002400B000024F1
:1005700008B57A48806879494968884203D30021E0
:10058000774800F077FB7748006800F00060B0F132
:10059000006F28D1714841688068001D814243D3B3
:1005A0007148007B00BB01216F48017300216C483A
:1005B00000F060FB00204FF400536C4A01460090AD
:1005C000674800F0C7FA65480268806802EB0031AE
:1005D0004FF4804261480C3005F09AFC5F48806817
:1005E000001D5E498860B3E000215F4801735C48EC
:1005F00000F040FB00204FF40053584A0C320146F3
:100600000090574800F0A6FA54480268806802EB50
:1006100000314FF48042554805F07AFC4F4880681D
:10062000001D4E49886093E04C4840684B498968FA
:10063000884251D34C48007B38BB01214A480173A2
:100640000021474800F016FB00204FF40053474AB2
:1006500001460090424800F07DFA404840683F4B18
:100660009B68C01A401C4FF6FF7303EA00323B48F8
:100670000368806803EB003138480C3005F048FC13
:10068000364840683549886062E000213648017389
:10069000334800F0EFFA00204FF400532F4A0C3299
:1006A000014600902E4800F055FA2C4840682B4B2C
:1006B0009B68C01A401C4FF6FF7303EA00322748BC
:1006C0000368806803EB0031284805F021FC2348CB
:1006D0004068224988603BE0204840681F4989689B
:1006E000884231D12048007BB0B900211C4800F07D
:1006F000C1FA002000901948007900F00300401C66
:10070000C3021A4A0021164800F024FA13488068F0
:10071000401C124988601BE00021114800F0AAFA31
:10072000002000900D48007900F00300401C830574
:100730000A4A0C3200210A4800F00CFA0748806887
:10074000401C0649886003E00021054800F092FA49
:100750004FF0746003490831086008BD200100248F
:100760002400002404040240208100242C410024A1
:100770000146087810381823B0FBF3F20848805C73
:10078000C865032A05D908686FF30900001D88654C
:1007900003E008686FF309008865886D7047000002
:1007A0002866010810B500210268174B9A4213D839
:1007B000154B8C3B9A420FD30378083B1424B3FBB0
:1007C000F4F1124B03EB81030366104B8033436655
:1007D00001238B40836616E00378103B1824B3FB9B
:1007E000F4F10B4B9A4204D8094BA83B9A4200D330
:1007F0000831084B03EB81030366064B80334366E5
:1008000001238B40836610BD94540258005802584F
:10081000B80402400008024010B502680179E9B14D
:1008200008291BD80E4B9A420CD80D4B8C3B9A4290
:1008300008D34B1E0B4C04EB8303C366094B4033B8
:10084000036707E04B1E084C04EB8303C366064BAB
:10085000403303674B1E01249C40446710BD0000D9
:1008600094540258005902580009024001460020E1
:100870008A69D2B98A6A32B1012A0DD0022A03D01C
:10088000032A10D10EE000BFCA6A02F08072B2F1F2
:10089000807F00D1012007E0CA6AB2F1C07F00D199
:1008A000012001E000E000BF36E08A69B2F5005F98
:1008B0001BD18A6A32B1012A07D0022A03D0032A47
:1008C00011D10AE000BF01200EE0CA6A02F0807276
:1008D000B2F1807F00D1012006E0CA6AB2F1C07F88
:1008E00000D1012000E000BF16E08A6A32B1012A7F
:1008F00005D0022A04D0032A0CD103E000BF00BFB8
:10090000012008E0CA6A02F08072B2F1807F00D153
:10091000012000E000BF00BF70470000F0B5846D0B
:10092000D0E919657560C56E15B1D0E91C657560B3
:10093000244E0568B54205D3234E0568B54201D85B
:10094000012500E00025CDB190F85C603F25B54061
:10095000A56005682D6825F4802506683560056862
:100960006B608568402D04D10568AA600568E96060
:1009700026E00568A9600568EA6021E0134E056875
:10098000B5421DD3114E8C360568B54218D80F4DAF
:100990002D1F2D6890F85C700126BE4035430B4E2C
:1009A000361F356005686B608568402D04D1056889
:1009B000AA600568E96003E00568A9600568EA6067
:1009C000F0BD000010000240B80402400854025874
:1009D00070477047704770472DE9F04704460D4651
:1009E00016460027B846B9462869012800D100BF3D
:1009F0002868042800D100BF00BF6079012802D117
:100A00000220BDE8F0870120607100BF0220207144
:100A10002868042840D1EEB900F072FD81460CE050
:100A200000F06EFDA0EB0900012806D9206940F016
:100A30000800206103202071E3E72068406B3849FB
:100A400008400028ECD1012000F01AFCA8692168B8
:100A5000086419E00CE000F053FDA0EB0900012848
:100A600006D9206940F00800206103202071C8E702
:100A70002068406B00F000400028ECD1012000F01D
:100A8000FFFBA86921684864E869B0402168886470
:100A9000286AB0402168C864286901280BD1206801
:100AA000876B1F20B0408743D5F8148008FA06F002
:100AB0000743206887632068C76B0720B0408743DF
:100AC000A96828680843E96840EA010808FA06F0BE
:100AD00007432068C763206800684FF48041B14035
:100AE0008843216808602068076840F6FE70B040BF
:100AF0008743D5F8048008FA06F0074320680760AA
:100B000020680168C020B040814320680160012056
:100B1000207100BF0020607100BF00BF71E70000BE
:100B20000080002070477047704710B504460CB92C
:100B3000012010BD207920B900206071204600F00E
:100B400008F802202071002020610120207100207F
:100B5000EFE770472DE9F04704460D4616469846E4
:100B6000089F4FF0000900BF6079012802D10220E0
:100B7000BDE8F0870120607100BF0220207115BB25
:100B80003648A168C8633648A16808643548A1683A
:100B9000C8642068006840F480502168086027B16C
:100BA000042F06D0082F0CD107E0206800F10809B7
:100BB00008E0206800F10C0904E0206800F1100949
:100BC00000E000BF22E02848E168C8632748E168E8
:100BD00008642748E168C8642068006840F08050D5
:100BE0002168086027B1042F06D0082F0CD107E038
:100BF000206800F1140908E0206800F1180904E0F9
:100C0000206800F11C0900E000BF00BF65B9206842
:100C1000006840F400502168086043464A46314667
:100C2000A06800F085FA0BE02068006840F00050F2
:100C30002168086043464A463146E06800F078FA89
:100C400000BF0020607100BF206800680121A9403A
:100C500008432168086000208AE70000D5040008E6
:100C60002D050008F9040008E70400083B0500080A
:100C70001305000870B504460D460026206800687C
:100C80004FF48051A94088432168086020680068BB
:100C90000121A94088432168086055B9A06800F087
:100CA0001BF806462068006820F4005021680860A0
:100CB00009E0E06800F010F806462068006820F0BF
:100CC00000502168086016B10420207101E0012065
:100CD0002071304670BD00002DE9F041044600252A
:100CE000002600F00DFC074614B90120BDE8F08194
:100CF00094F83500022808D08020606500BF0020ED
:100D000084F8340000BF0120F0E74249206888429F
:100D100005D341492068884201D8012000E0002025
:100D200070B12068006820F01E002168086020680B
:100D3000406920F0800021684861A56D266806E0C2
:100D40002068006820F00E00216808602668206E88
:100D5000006820F48070216E08602E492068884267
:100D60000AD32D492068884206D82068006820F000
:100D700001002168086005E02068006820F001009B
:100D80002168086010E000F0BBFBC01B05280BD9F0
:100D90002020606500BF002084F8340000BF0320DD
:100DA00084F835000120A1E7306800F00100002838
:100DB000E9D118492068884205D31749206888423C
:100DC00001D8012000E0002028B194F85C103F20F9
:100DD0008840A86005E094F85C10012088400F4925
:100DE0000860D4E919104860E06E40B1E06E006818
:100DF00020F48070E16E0860D4E91C10486000BFE8
:100E0000002084F8340000BF012084F83500002061
:100E10006CE7000010000240B8040240045402587D
:100E200010B504460CB9012010BD94F83500022815
:100E300003D0802060650120F6E7344920688842AD
:100E400005D333492068884201D8012000E0002002
:100E5000C0B1042084F835002C49206888420AD3A8
:100E60002B492068884206D82068006820F00100DD
:100E70002168086048E02068006820F001002168CF
:100E8000086041E02068006820F00E0021680860DA
:100E90001E49206888420AD31D492068884206D826
:100EA0002068006820F001002168086005E02068E3
:100EB000006820F0010021680860206E006820F4BE
:100EC0008070216E086094F85C1001208840114900
:100ED0000860D4E919104860E06E40B1E06E006827
:100EE00020F48070E16E0860D4E91C10486000BFF7
:100EF000002084F8340000BF012084F83500206D04
:100F000010B12046216D884700208DE71000024077
:100F1000B8040240045402580146486D704700006E
:100F20002DE9F0410446002500F0EAFA06460027C4
:100F300014B90120BDE8F08179492068884205D3C1
:100F400078492068884201D8012000E0002000286C
:100F500071D0606A00B100BF00BF002084F8340087
:100F600000BF022084F835006D49206888420AD30A
:100F70006C492068884206D82068006820F001008B
:100F80002168086005E02068006820F00100216801
:100F900008600BE000F0B4FA801B052806D9202079
:100FA0006065032084F835000120C3E720680068ED
:100FB00000F001000028EDD1206805685A4805407E
:100FC000D4E9020108432169084361690843A16922
:100FD0000843E1690843216A08430543606A04281D
:100FE00003D1D4E90B01084305432068056020685C
:100FF000456925F00705606A0543606A04280DD13C
:10100000A06A0543E06A48B12046FFF72FFC28B1EB
:1010100040206065012084F835008BE72068456139
:101020002046FFF7A5FB074694F85C103F20884058
:10103000B8604DE0FFE73D492068884206D33B4950
:101040008C312068884201D8012000E00020B8B32C
:1010500000BF002084F8340000BF022084F835006F
:101060002068056847F6F0708543A068402801D1E4
:10107000102105E0A068802801D1C10100E0002115
:10108000E06841EAD001206941EAD001606941EAA3
:10109000D001A06941EAD0002022E16902EAD10131
:1010A0000843216A40EA11100543206805601F4982
:1010B0002068401A1421B0FBF1F08000E06507E0E1
:1010C000FFE740206065032084F83500012031E708
:1010D0002046FFF767FBA068802801D100206060F0
:1010E0002079216E0860D4E919104860606860B109
:1010F0006068082809D82046FFF78EFB0020E16EC3
:101100000860D4E91C10486003E00020E066206716
:10111000606700206065012084F83500002009E741
:1011200010000240B80402403F8010FE08540258EC
:101130002DE9F04104460D4616461F464FF00008C3
:1011400014B90120BDE8F08100BF94F834000128F3
:1011500001D10220F6E7012084F8340000BF94F8A2
:10116000350001287CD1022084F83500002060651C
:101170004149206888420AD340492068884206D8FD
:101180002068006820F001002168086005E0206800
:10119000006820F00100216808603B46324629467D
:1011A0002046FFF7BBFB34492068884205D333490A
:1011B0002068884201D8012000E00020B0B12068FA
:1011C000006820F01E0040F01600216808602068CA
:1011D000406940F0800021684861206CB0B120680F
:1011E000006840F00800216808600FE0206800688F
:1011F00020F00E0040F00A0021680860206C28B141
:101200002068006840F0040021680860206E0068D3
:1012100000F4803028B1206E006840F48070216EA8
:101220000860E06E28B1E06E006840F48070E16E06
:1012300008601149206888420BD310492068884211
:1012400007D82068006840F001002168086011E0BC
:1012500006E02068006840F001002168086009E0AD
:1012600000BF002084F8340000BF4FF400606065C8
:101270004FF00108404665E710000240B804024004
:1012800070B5044600F03CF906462546681C10B1CE
:1012900004480078054400BF00F032F9801BA842E2
:1012A000FAD370BD20000024F8B502460B46002199
:1012B000002600240020824D00BFFCE0012707FA31
:1012C00001F61F6807EA0604B4427CD15F68022F6A
:1012D00002D05F68122F1AD14FEAD10C02F1200719
:1012E00057F82C004F074FEAD76C0F2707FA0CF777
:1012F000B8434FEA417C4FEADC6C1F6907FA0CF7F0
:1013000038434FEAD10C02F1200747F82C0010684F
:101310004FEA410C032707FA0CF7B8431F7907F08F
:1013200003074FEA410C07FA0CF7384310605F6877
:10133000012F08D05F68022F05D05F68112F02D0FF
:101340005F68122F17D190684FEA410C032707FA04
:101350000CF7B8434FEA410CDF6807FA0CF7384343
:101360009060506801278F40B8431F79C7F300177A
:101370008F4038435060D0684FEA410C032707FA8A
:101380000CF7B8434FEA410C9F6807FA0CF7384353
:10139000D0605F6807F08057B7F1805F95D100BFDC
:1013A000484F3F6847F00207DFF818C1CCF80070DB
:1013B00067463F6807F00207009700BF00BF424F33
:1013C0004FEA910C00E075E057F82C008F074FEAC8
:1013D000177C0F2707FA0CF7B8433C4FBA4201D1EC
:1013E00000272DE03A4FBA4201D1012728E0394FBA
:1013F000BA4201D1022723E0374FBA4201D1032775
:101400001EE0364FBA4201D1042719E0344FBA42E8
:1014100001D1052714E0334FBA4201D106270FE06E
:10142000314FBA4201D107270AE0304FBA4201D109
:10143000082705E02E4FBA4201D1092700E00A270C
:101440004FEA817C4FEA1C7C07FA0CF738431E4FA9
:101450004FEA910C47F82C002868A0435F6807F416
:101460008037B7F5803F00D1204328606868A043EB
:101470005F6807F40037B7F5003F00D1204368608C
:101480004FF0B0473868A0435F6807F48017B7F59E
:10149000801F00D120434FF0B04738607868A043E8
:1014A0005F6807F40017B7F5001F00D120434FF025
:1014B000B0477860491C1029FFF400AFF8BD000068
:1014C00080000058F44402580804005800000258F4
:1014D0000004025800080258000C0258001002587C
:1014E0000014025800180258001C0258002002582C
:1014F000002402580AB1018300E0418370470000D4
:101500000148006870470000180000240348006884
:10151000034909780844014908607047180000240D
:101520002000002410B5032000F0BAF80F2000F0CE
:1015300007F808B1012010BD00F028F80020FAE7F4
:1015400070B504460E4800784FF47A71B1FBF0F0A4
:101550000C490968B1FBF0F5284602F02EFD08B1F0
:10156000012070BD102C07D200222146501E00F031
:1015700059F80548046001E00120F2E70020F0E797
:1015800020000024000000241C00002408B500BF37
:101590001B48006840F002001949086008460068CE
:1015A00000F00200009000BF00BF052000F078F8B6
:1015B000002211466FF00B0000F034F800221146B3
:1015C0006FF00A0000F02EF8002211466FF00900BB
:1015D00000F028F800221146501F00F023F80022E6
:1015E0001146101F00F01EF800221146901E00F058
:1015F00019F800221146501E00F014F808BD000032
:10160000F444025801460846002809DB00F01F0395
:1016100001229A4043099B0003F1E023C3F8002113
:1016200000BF70472DE9F05F80460D46164604F076
:101630002DFD074639462A46334601F00700C0F122
:10164000070ABAF1040F02D94FF0040A01E0C0F111
:10165000070AD14600F1040ABAF1070F02D24FF08F
:10166000000A01E0A0F1030AD4464FF0010A0AFA89
:1016700009FAAAF1010A0AEA020A0AFA0CFA4FF078
:10168000010B0BFA0CFBABF1010B0BEA030B4AEA63
:101690000B042146404604F001FDBDE8F09F000028
:1016A00000BF00F00702064B19684FF6FF03194010
:1016B000044B0B4343EA0221014B196000BF704702
:1016C0000CED00E00000FA0510B501F067F90949DA
:1016D000096801F470614FF4807292FAA2F2B2FAD2
:1016E00082F2D140044A515CC8400449086008466F
:1016F000006810BD1844025822620008000000244F
:1017000010B501F003F90749096801F070011022D2
:1017100092FAA2F2B2FA82F2D140034A515CC84076
:1017200010BD0000204402582262000870B5014636
:1017300000220120002300249FED811AB0EE410A0F
:101740009FED7F1AF0EE410A7E4D2D6805F00302F1
:101750007C4D2D68C5F305307A4D2D1D2D6805F0A3
:101760001003784D14352D68C5F3CC0515FB03F532
:1017700001EE105AB8EE411AB0EE410A22B1012A28
:101780004DD0022A7DD169E06E4D283D2D68C5F30C
:1017900040152DB36B4D283D2D68C5F3C1066A4D2C
:1017A00025FA06F4B4FBF0F501EE105AF8EE411AF2
:1017B0009FED661A80EE012A624D10352D68C5F343
:1017C000080501EE105AB8EE411A32EE011AB7EED2
:1017D000002A31EE021A21EE811AF0EE410A1DE0D4
:1017E000594DB5FBF0F501EE105AF8EE411A9FED98
:1017F000571A80EE012A534D10352D68C5F30805A0
:1018000001EE105AB8EE411A32EE011AB7EE002A74
:1018100031EE021A21EE811AF0EE410A5EE04C4DE3
:10182000B5FBF0F501EE105AB8EE412A9FED471ACC
:10183000C0EE011A434D10352D68C5F3080501EEC1
:10184000105AB8EE411A31EE811AF7EE001A31EE55
:10185000211A22EE011AF0EE410A3FE03D4DB5FBA0
:10186000F0F501EE105AF8EE411A9FED381A80EEAD
:10187000012A344D10352D68C5F3080501EE105AC4
:1018800000E00CE0B8EE411A32EE011AB7EE002A81
:1018900031EE021A21EE811AF0EE410A1EE02C4DC3
:1018A000B5FBF0F501EE105AB8EE412A9FED271A6C
:1018B000C0EE011A234D10352D68C5F3080501EE61
:1018C000105AB8EE411A31EE811AF7EE001A31EED5
:1018D000211A22EE011AF0EE410A00BF00BF194D95
:1018E00010352D68C5F346256D1C01EE105AB8EE73
:1018F000411AC0EE811ABCEEE11A81ED001A114DB9
:1019000010352D68C5F306456D1C01EE105AB8EE72
:10191000411AC0EE811ABCEEE11A81ED011A094D9F
:1019200010352D68C5F306656D1C01EE105AB8EE32
:10193000411AC0EE811ABCEEE11A81ED021A70BDA7
:1019400000000000284402580090D0030000004628
:1019500000093D0040787D0170B50146002201205C
:10196000002300249FED811AB0EE410A9FED7F1AFB
:10197000F0EE410A7E4D2D6805F003027C4D2D6886
:10198000C5F305507A4D2D1D2D6805F48073784DF3
:101990001C352D68C5F3CC0515FB03F501EE105A77
:1019A000B8EE411AB0EE410A22B1012A4DD0022A06
:1019B0007DD169E06E4D283D2D68C5F340152DB3EE
:1019C0006B4D283D2D68C5F3C1066A4D25FA06F416
:1019D000B4FBF0F501EE105AF8EE411A9FED661ACD
:1019E00080EE012A624D18352D68C5F3080501EE19
:1019F000105AB8EE411A32EE011AB7EE002A31EE53
:101A0000021A21EE811AF0EE410A1DE0594DB5FB94
:101A1000F0F501EE105AF8EE411A9FED571A80EEDC
:101A2000012A534D18352D68C5F3080501EE105AEB
:101A3000B8EE411A32EE011AB7EE002A31EE021A60
:101A400021EE811AF0EE410A5EE04C4DB5FBF0F557
:101A500001EE105AB8EE412A9FED471AC0EE011A66
:101A6000434D18352D68C5F3080501EE105AB8EE40
:101A7000411A31EE811AF7EE001A31EE211A22EEE8
:101A8000011AF0EE410A3FE03D4DB5FBF0F501EEE5
:101A9000105AF8EE411A9FED381A80EE012A344DA3
:101AA00018352D68C5F3080501EE105A00E00CE06A
:101AB000B8EE411A32EE011AB7EE002A31EE021AE0
:101AC00021EE811AF0EE410A1EE02C4DB5FBF0F537
:101AD00001EE105AB8EE412A9FED271AC0EE011A06
:101AE000234D18352D68C5F3080501EE105AB8EEE0
:101AF000411A31EE811AF7EE001A31EE211A22EE68
:101B0000011AF0EE410A00BF00BF194D18352D68CB
:101B1000C5F346256D1C01EE105AB8EE411AC0EE11
:101B2000811ABCEEE11A81ED001A114D18352D68AD
:101B3000C5F306456D1C01EE105AB8EE411AC0EE11
:101B4000811ABCEEE11A81ED011A094D18352D6894
:101B5000C5F306656D1C01EE105AB8EE411AC0EED1
:101B6000811ABCEEE11A81ED021A70BD000000007E
:101B7000284402580090D0030000004600093D00B0
:101B800040787D012DE9F0410446002500262068BB
:101B900000F00060B0F1006F30D1606E48B1B0F578
:101BA000801F0DD0B0F5001F10D0B0F5401F15D12B
:101BB00013E0F948006840F40030F74908600FE08E
:101BC0000221201D02F02AFE054609E0022104F14F
:101BD000240002F0BBFE054602E001E0012500BF43
:101BE00000BF55B9EC482430006820F44010616E05
:101BF0000843E9492431086000E02E43208800F4BE
:101C00008070B0F5807F2DD1606D05281AD2DFE895
:101C100000F0030A10171800DF48006840F4003095
:101C2000DD49086010E00021201D02F0F7FD0546A7
:101C30000AE0002104F1240002F088FE054603E0DA
:101C400002E001E0012500BF00BF55B9D2482430B1
:101C5000006820F00700616D0843CF492431086017
:101C600000E02E43208800F40070B0F5007F33D1EF
:101C7000A06D802817D003DC40B140281CD10CE0B7
:101C8000C02817D0B0F5807F16D114E0C248006894
:101C900040F40030C049086010E00021201D02F02F
:101CA000BDFD05460AE0002104F1240002F04EFECD
:101CB000054603E002E001E0012500BF00BF55B981
:101CC000B5482430006820F4E070A16D0843B249A3
:101CD0002431086000E02E43208800F48060B0F5D5
:101CE000806F38D1D4F8A400B0F5800F19D004DC8F
:101CF00050B1B0F5001F1DD10DE0B0F5C00F17D0E9
:101D0000B0F5000F16D114E0A348006840F400308D
:101D1000A149086010E00021201D02F07FFD05466A
:101D20000AE0002104F1240002F010FE054603E061
:101D300002E001E0012500BF00BF5DB996482C30EC
:101D4000006820F46000D4F8A410084392492C31B4
:101D5000086000E02E43208800F40060B0F5006FBA
:101D600038D1D4F8A800B0F1007F19D004DC50B10C
:101D7000B0F1807F1DD10DE0B0F1407F17D0B0F100
:101D8000806F16D114E08448006840F40030824926
:101D9000086010E00021201D02F040FD05460AE029
:101DA000002104F1240002F0D1FD054603E002E029
:101DB00001E0012500BF00BF5DB977482C30006805
:101DC00020F0E060D4F8A810084373492C31086073
:101DD00000E02E43206800F00070B0F1007F27D1B2
:101DE000A06CA0B1102804D0202809D030280FD131
:101DF0000CE06948006840F400306749086009E079
:101E00000221201D02F00AFD054603E002E001E088
:101E1000012500BF00BF55B95F482030006820F0A1
:101E20003000A16C08435C492031086000E02E437B
:101E3000208800F48050B0F5805F36D1E06DB0F5B9
:101E4000005F19D004DC50B1B0F5805F1DD10DE00A
:101E5000B0F5405F17D0B0F5804F16D114E04E4872
:101E6000006840F400304C49086010E00021201D5B
:101E700002F0D4FC05460AE0002104F1240002F03F
:101E800065FD054603E002E001E0012500BF00BF5B
:101E900055B941482430006820F4E040E16D084322
:101EA0003D492431086000E02E43208800F40050B2
:101EB000B0F5005F34D1206EB0F5403F1DD007DC97
:101EC00068B1B0F5803F0BD0B0F5003F18D10DE000
:101ED000B0F5802F12D0B0F5A02F11D10FE011E096
:101EE0000121201D02F09AFC05460BE0012104F1BE
:101EF000240002F02BFD054604E003E002E001E0CF
:101F0000012500BF00BF55B923482430006820F4E4
:101F1000E020216E084320492431086000E02E4370
:101F2000208800F48040B0F5804F38D1D4F8AC0060
:101F3000B0F1405F1DD007DC68B1B0F1805F0BD01D
:101F4000B0F1005F18D10DE0B0F1804F12D0B0F1C8
:101F5000A04F11D10FE011E00121201D02F05EFC25
:101F600005460BE0012104F1240002F0EFFC0546D8
:101F700004E003E002E001E0012500BF00BF6DB90D
:101F800005482C30006820F0E040D4F8AC1008433D
:101F900001492C31086002E02C4402582E4320886D
:101FA00000F40040B0F5004F26D1E06E98B1B0F1DA
:101FB000805F03D0B0F1005F0ED106E0FA48006800
:101FC00040F40030F849086008E00121201D02F0CB
:101FD00025FC054602E001E0012500BF00BF55B920
:101FE000F1482430006820F04050E16E0843EE498B
:101FF0002431086000E02E43206800F08070B0F1CA
:10200000807F27D1606CA0B1012804D0022809D0BC
:1020100003280FD10CE0E448006840F40030E249A6
:10202000086009E00221201D02F0F8FB054603E0EC
:1020300002E001E0012500BF00BF55B9DA482030B9
:10204000006820F00300616C0843D7492031086024
:1020500000E02E43206800F48000B0F5800F7DD1B1
:10206000D248006840F48070D0490860FFF748FA11
:10207000074606E0FFF744FAC01B642801D9032590
:1020800005E0CA48006800F480700028F2D000BF64
:102090008DBBC5484430006800F44070B4F8B010FF
:1020A00001F44071884214D0BF484430006820F4E5
:1020B0004078BD484430006840F48030BA4944312B
:1020C00008600846006820F4803008600846C0F8C0
:1020D0000080D4F8B000B0F5807F15D1FFF710FA7A
:1020E000074609E0FFF70CFAC01B41F2883188422D
:1020F00002D9032507E038E0AB4844300068C0F35C
:1021000040000028EED000BF4DBB00BFB4F8B000C7
:1021100000F44070B0F5407F0ED1A3481C38006831
:1021200020F47C51A24AD4F8B000104041EA1010CB
:102130009D491C39086007E09B481C38006820F462
:102140007C5099491C390860974844300068B4F8BD
:10215000B010C1F30B010843934901E006E002E02F
:102160004431086002E02E4300E02E43207800F066
:10217000010068B3A06F182819D005DC48B1082801
:1021800008D0102816D10BE0202811D0282811D112
:102190000FE011E00121201D02F040FB05460BE09D
:1021A000012104F1240002F0D1FB054604E003E024
:1021B00002E001E0012500BF00BF55B97A48283090
:1021C000006820F03800A16F084377492831086083
:1021D00000E02E43207800F00200022828D1606F32
:1021E000062815D2DFE800F003040A11121311E0EB
:1021F0000121201D02F012FB05460BE0012104F134
:10220000240002F0A3FB054604E003E002E001E045
:10221000012500BF00BF55B963482830006820F091
:102220000700616F084360492831086000E02E43D1
:10223000207800F0040004282AD1D4F89000062861
:1022400015D2DFE800F003040A11121311E0012196
:10225000201D02F0E3FA05460BE0012104F1240001
:1022600002F074FB054604E003E002E001E0012512
:1022700000BF00BF5DB94C482C30006820F007005B
:10228000D4F89010084348492C31086000E02E43F0
:10229000207800F02000202836D1D4F88C00B0F14E
:1022A000405F1DD007DC68B1B0F1805F0BD0B0F1AA
:1022B000005F18D10DE0B0F1804F12D0B0F1A04F07
:1022C00011D10FE011E00021201D02F0A7FA054610
:1022D0000BE0022104F1240002F038FB054604E083
:1022E00003E002E001E0012500BF00BF5DB92E4818
:1022F0002830006820F0E040D4F88C1008432A49C8
:102300002831086000E02E43207800F0400040288B
:1023100036D1D4F89800B0F5406F1DD007DC68B115
:10232000B0F5806F0BD0B0F5006F18D10DE0B0F5AF
:10233000805F12D0B0F5A05F11D10FE011E0002155
:10234000201D02F06BFA05460BE0022104F1240087
:1023500002F0FCFA054604E003E002E001E001259A
:1023600000BF00BF5DB910482C30006820F4E05079
:10237000D4F8981008430C492C31086000E02E4333
:10238000207800F0800080283BD1D4F89C00B0F584
:10239000C04F24D00EDCA0B1B0F5005F12D0B0F574
:1023A000804F1FD114E000002C440258004802580E
:1023B000FFFCFF0FB0F5004F12D0B0F5204F11D148
:1023C0000FE011E00021201D02F028FA05460BE085
:1023D000022104F1240002F0B9FA054604E003E00A
:1023E00002E001E0012500BF00BF4DB9B24800681E
:1023F00020F46040D4F89C100843AF49086000E026
:102400002E43207800F00800082816D1D4F8800068
:10241000B0F5805F06D1022104F1240002F096FAA3
:1024200006430AE0A448001F006820F44050D4F896
:1024300080100843A049091F0860207800F01000B0
:10244000102814D1D4F89400B0F5807F06D1022171
:1024500004F1240002F07AFA064308E09648006886
:1024600020F44070D4F89410084393490860206821
:1024700000F40020B0F5002F26D1D4F8A00030B130
:10248000B0F5803F09D0B0F5003F0ED10CE000213F
:10249000201D02F0C3F9054609E0022104F12400E1
:1024A00002F054FA054602E001E0012500BF00BF3A
:1024B0004DB98148006820F44030D4F8A01008439A
:1024C0007D49086000E02E43206800F48020B0F5CC
:1024D000802F2DD1D4F88400B0F5801F06D0B0F540
:1024E000001F0CD0B0F5401F11D10FE072482C38FE
:1024F000006840F4003070492C39086009E001217F
:1025000004F1240002F022FA054602E001E0012570
:1025100000BF00BF5DB96848001F006820F440108C
:10252000D4F8841008436449091F086000E02E4372
:10253000206800F48030B0F5803F24D1E06C18B101
:10254000B0F5803F0FD108E05B482C38006840F4BC
:10255000003059492C39086007E00221201D02F0A3
:102560005DF9054601E0012500BF00BF55B952489D
:102570000C38006820F48030E16C08434E490C3977
:10258000086000E02E43206800F00050B0F1005FCA
:1025900005D1022104F1240002F0D8F90643206895
:1025A00000F40030B0F5003F27D1E06FA0B1B0F5E6
:1025B000807F06D0B0F5007F0CD0B0F5407F0CD105
:1025C00009E03D482C38006840F400303A492C3985
:1025D000086004E003E002E001E0012500BF00BF65
:1025E00055B93548001F006820F44070E16F08437A
:1025F0003149091F086000E02E43206800F4801074
:10260000B0F5801F09D12C480838006820F0004040
:10261000216F0843284908390860206800F080507D
:10262000B0F1805F0AD124484838006820F4804027
:10263000D4F8B4100843204948390860206800F4F1
:102640000010B0F5001F09D11B480838006820F0C1
:102650008070A16E0843184908390860206800F0AE
:102660008040B0F1804F11D100BF13484838006856
:1026700020F4004010494839086008460068D4F842
:10268000B81008430C494839086000BF206800F0C2
:102690000040B0F1004F09D107480C38006820F025
:1026A0004050216D084304490C39086016B90020D8
:1026B000BDE8F0810120FBE75844025870B504469C
:1026C0000D4600268D48006800F00700A8420ED293
:1026D0008A48006820F007002843884908600846B7
:1026E000006800F00700A84201D0012070BD2078EA
:1026F00000F00200022807D18148006820F00F0096
:10270000E16808437E490860207800F00100002855
:1027100051D07B48006820F47060A1680843784974
:1027200008606068022807D1754818380068C0F34F
:102730004040F8B90120D9E76068032807D1704804
:1027400018380068C0F34060A0B90120CEE7606887
:10275000012807D16A4818380068C0F3002048B93A
:102760000120C3E7664818380068C0F3800008B944
:102770000120BBE762480838006820F00700616864
:1027800008435F4908390860FEF7BAFE06466068EC
:10279000022811D108E0FEF7B3FE801B41F2883118
:1027A000884201D90320A1E755480838006800F0A5
:1027B00038001028EFD13AE06068032811D108E012
:1027C000FEF79EFE801B41F28831884201D903202A
:1027D0008CE74B480838006800F038001828EFD123
:1027E00025E06068012811D108E0FEF789FE801B12
:1027F00041F28831884201D9032077E74048083800
:10280000006800F038000828EFD110E008E0FEF77B
:1028100077FE801B41F28831884201D9032065E7A9
:1028200037480838006800F038000028EFD13348F6
:10283000006800F00700A8420ED93048006820F078
:10284000070028432D4908600846006800F007008B
:10285000A84201D0012049E7207800F004000428B4
:1028600007D12748006820F07000216908432449F7
:102870000860207800F00800082809D12048001DD1
:10288000006820F07000616908431D49091D086057
:10289000207800F01000102809D11948001D0068A8
:1028A00020F4E060A16908431549091D08602078FB
:1028B00000F02000202809D111480830006820F0DD
:1028C0007000E16908430E490831086000F066F8BD
:1028D0000B49096801F470614FF4807292FAA2F218
:1028E000B2FA82F2D140074A515CC84006490860FA
:1028F0000F20FEF725FE0020F8E600000020005221
:1029000018440258226200080000002410B5FEF7A7
:10291000DBFE0949096801F00F01012292FAA2F2D7
:10292000B2FA82F2D140054A515CC84004490860BD
:102930000846006810BD00001844025822620008D2
:102940000400002410B5FFF7E1FF0749096801F012
:102950007001102292FAA2F2B2FA82F2D140034A36
:10296000515CC84010BD00001C440258226200089F
:1029700010B5FFF7CBFF0749096801F4E0614FF498
:10298000807292FAA2F2B2FA82F2D140024A515C0B
:10299000C84010BD1C4402582262000870B50125D1
:1029A00000EE905A0022012100230024DFED861A58
:1029B000B0EE610ADFED841AB0EE611A0020834D9B
:1029C0002D6805F0380535B1082D15D0102D15D01E
:1029D000182D7CD114E07D4D103D2D68C5F34015B8
:1029E00045B17A4D103D2D68C5F3C106784D25FAE5
:1029F00006F000E07648E5E07648E3E07648E1E07E
:102A0000724D18352D6805F00302704D18352D688C
:102A1000C5F305116D4D1C352D6805F001036B4D97
:102A200024352D68C5F3CC0515FB03F501EE905A4E
:102A3000F8EE611AB0EE610A22B1012A4FD0022AE3
:102A40007DD16BE0614D103D2D68C5F340152DB370
:102A50005E4D103D2D68C5F3C1065D4D25FA06F4A7
:102A6000B4FBF1F501EE905AB8EE612ADFED5B1A86
:102A7000C0EE212A554D20352D68C5F3080501EE1D
:102A8000905AF8EE611A72EEA11AF7EE002A71EE72
:102A9000A21A62EE211AB0EE611A1FE04C4DB5FB8E
:102AA000F1F501EE905AB8EE612ADFED4C1AC0EE56
:102AB000212A464D20352D68C5F3080501EE905AB0
:102AC000F8EE611A72EEA11AF7EE002A00E077E044
:102AD00071EEA21A62EE211AB0EE611A5EE03D4D6F
:102AE000B5FBF1F501EE905AB8EE612ADFED3B1A25
:102AF000C0EE212A354D20352D68C5F3080501EEBD
:102B0000905AF8EE611A72EEA11AF7EE002A71EEF1
:102B1000A21A62EE211AB0EE611A3FE02E4DB5FB0B
:102B2000F1F501EE905AB8EE612ADFED2C1AC0EEF5
:102B3000212A264D20352D68C5F3080500E00EE05A
:102B400001EE905AF8EE611A72EEA11AF7EE002A21
:102B500071EEA21A62EE211AB0EE611A1EE01D4D4E
:102B6000B5FBF1F501EE905AF8EE612ADFED1B1A84
:102B700080EE212A154D20352D68C5F3080501EE9C
:102B8000905AF8EE611A72EE211AB7EE002A71EE31
:102B9000821A62EEA11AB0EE611A00BF00BF0B4D9F
:102BA00020352D68C5F346256D1C00EE905AF8EED1
:102BB000601A81EE212AFCEEC21A11EE900A01E0A1
:102BC000044800BF00BF70BD000000001044025860
:102BD0000090D00300093D0040787D0100000046D0
:102BE00070B504460025207800F00100002872D05E
:102BF000F948006800F0380010280CD0F64800684A
:102C000000F03800182812D1F3481830006800F09E
:102C1000030002280BD1F04810380068C0F3404090
:102C200000286DD0606800286AD1012070BD00BF07
:102C30006068B0F5803F08D1E7481038006840F47C
:102C40008030E549103908602EE0606868B9E248D4
:102C50001038006820F48030DF49103908600846D9
:102C6000006820F4802008601EE06068B0F5A02FA6
:102C70000DD1D9481038006840F48020D649103969
:102C800008600846006840F4803008600CE0D248D4
:102C90001038006820F48030CF49103908600846A9
:102CA000006820F48020086000BF6068A0B1FEF7D3
:102CB00027FC054608E0FEF723FC401B41F2883163
:102CC000884201D90320B1E7C34810380068C0F337
:102CD00040400028EFD013E0FEF712FC054608E064
:102CE000FEF70EFC401B41F28831884201D90320D7
:102CF0009CE7B94810380068C0F340400028EFD185
:102D0000207800F00200022847D1B348006800F0A4
:102D1000380058B1B048006800F0380018283ED19B
:102D2000AD481830006800F00300B8BBAA4810385E
:102D30000068C0F3800018B1E06808B9012075E7A9
:102D4000A5481038006820F01900E1680843A2493E
:102D500010390860FEF7D4FB054606E0FEF7D0FB0D
:102D6000401B022801D9032060E79B481038006807
:102D7000C0F380000028F1D097480C38006820F498
:102D80007C304FF47C3292FAA2F2B2FA82F22169DC
:102D90009140084390490C3908604AE0FFE7E06839
:102DA00068B38D481038006820F01900E1680843C6
:102DB000894910390860FEF7A3FB054606E0FEF7D7
:102DC0009FFB401B022801D903202FE782481038BF
:102DD0000068C0F380000028F1D07F480C380068FC
:102DE00020F47C304FF47C3292FAA2F2B2FA82F2F2
:102DF00021699140084378490C39086019E0764808
:102E00001038006820F00100734910390860FEF79F
:102E100077FB054606E0FEF773FB401B022801D94D
:102E2000032003E76C4810380068C0F380000028D6
:102E3000F1D1207800F01000102877D166480068A2
:102E400000F0380008280CD06348006800F0380013
:102E5000182823D160481830006800F003000128CA
:102E60001CD15D4810380068C0F3002020B1E06933
:102E7000802801D00120D9E657480C38006820F09E
:102E8000F8404FF0F84292FAA2F2B2FA82F2216AC6
:102E90009140084350490C39086047E0E06958B355
:102EA0004D481038006840F080004B4910390860E8
:102EB000FEF726FB054606E0FEF722FB401B022834
:102EC00001D90320B2E6444810380068C0F300205E
:102ED0000028F1D040480C38006820F0F8404FF04E
:102EE000F84292FAA2F2B2FA82F2216A91400843C1
:102EF00039490C39086019E037481038006820F06B
:102F00008000354910390860FEF7FAFA054606E0F8
:102F1000FEF7F6FA401B022801D9032086E62E4868
:102F200010380068C0F300200028F1D1207800F0AC
:102F30000800082836D16069D0B12748643000689D
:102F400040F00100244964310860FEF7D9FA0546D3
:102F500006E0FEF7D5FA401B022801D9032065E6FA
:102F60001D4864300068C0F340000028F1D019E02B
:102F700019486430006820F0010017496431086086
:102F8000FEF7BEFA054606E0FEF7BAFA401B022835
:102F900001D903204AE6104864300068C0F34000BD
:102FA0000028F1D1207800F02000202834D1A06939
:102FB000D8B109481038006840F4805006491039EB
:102FC0000860FEF79DFA054608E0FEF799FA401BF7
:102FD000022803D9032029E610440258AF480068AC
:102FE000C0F340300028F0D016E0AC48006820F470
:102FF0008050AA490860FEF783FA054606E0FEF70E
:103000007FFA401B022801D903200FE6A34800687D
:10301000C0F340300028F2D1207800F004000428EA
:103020007DD19F48006840F480709D490860FEF79C
:1030300067FA054606E0FEF763FA401B642801D9EB
:103040000320F3E59648006800F480700028F2D071
:1030500000BFA068012808D190487030006840F097
:1030600001008E49703108602DE0A06868B98B4876
:103070007030006820F0010088497031086008460F
:10308000006820F0040008601DE0A06805280DD14C
:1030900082487030006840F0040080497031086058
:1030A0000846006840F0010008600CE07B48703082
:1030B000006820F001007949703108600846006816
:1030C00020F00400086000BFA068A0B1FEF718FA65
:1030D000054608E0FEF714FA401B41F288318842A9
:1030E00001D90320A2E56D4870300068C0F34000AC
:1030F0000028EFD013E0FEF703FA054608E0FEF7DC
:10310000FFF9401B41F28831884201D903208DE547
:10311000624870300068C0F340000028EFD1606A58
:1031200000287CD05D481030006800F03800182876
:1031300076D0606A022874D15848006820F0807008
:1031400056490860FEF7DCF9054606E0FEF7D8F9B7
:10315000401B022801D9032068E550480068C0F3ED
:1031600040600028F2D100BFD4E90A1041EA001003
:103170004A492831096840F2F332914308434749EC
:1031800028310860208E401EC0F30800616B491E84
:103190004FF47E4202EA41210843218F491ED201A9
:1031A00002EA014108433C21095D491E120202EA7C
:1031B0000161084339493031086000BF081D0068CB
:1031C0004FF6F87188434FF6F87292FAA2F2B2FA0B
:1031D00082F2A16C914008433049343108602F4895
:1031E0002C30006820F00C00216C08432B492C3156
:1031F00008600846006820F00200616C0843274917
:103200002C3108600846006840F4803008600846A9
:10321000006840F4003008600846006802E03BE0C7
:1032200038E01FE040F4802008600846006840F065
:10323000010008601948006840F080701749086074
:10324000FEF75EF9054606E0FEF75AF9401B022834
:1032500001D90320EAE411480068C0F34060002867
:10326000F2D019E00D48006820F080700B4908602A
:10327000FEF746F9054606E0FEF742F9401B022834
:1032800001D90320D2E405480068C0F3406000285B
:10329000F2D101E00120C9E40020C7E40044025853
:1032A000004802580146D1F8840040F48060C1F81B
:1032B00084000120704770472DE9F04704462068DC
:1032C00007692068D0F8148007EA08052068D0F85C
:1032D00008904FF0000A94F8816005F0400038B97A
:1032E00005F0010020B12046216F88474FF0010A08
:1032F00005F0200038B905F0020020B12046616FCA
:1033000088474FF0010ABAF1000F01D0BDE8F087FD
:1033100005F00800002872D02068806940F008009D
:10332000216888612068806940F010002168886108
:103330002068806940F40060216888612068006925
:1033400020F008002168086109F4404048B1042ECB
:1033500002D0A06FC06920B1032E3DD0E06FC069DC
:10336000C8BB2068806800F4404038BB22E0E068B9
:103370000F2807D92068006B616E0860606E001D21
:10338000606612E0E068072807D92068008E616E49
:103390000880606E801C606607E0206890F830004E
:1033A000616E0870606E401C6066B4F86A00401E72
:1033B000A4F86A00B4F86A000028D8D1204601F0C9
:1033C00031FC012084F88100D4F8840018B1204633
:1033D000FFF771FF9AE7FFE7052E03D1204600F0C3
:1033E000D6FD0AE0042E03D1204600F0ADFA04E039
:1033F000032E02D1204600F0C9FD87E7FFE707F062
:10340000080048B108F4006030B12068806940F4D9
:1034100000602168886179E705F4587000286CD055
:1034200005F0400058B1D4F8840040F00400C4F81E
:1034300084002068806940F040002168886105F4BC
:10344000007058B1D4F8840040F00100C4F8840042
:103450002068806940F400702168886105F48070FC
:1034600058B1D4F8840040F00800C4F88400206803
:10347000806940F480702168886105F0200058B1AF
:10348000D4F8840040F08000C4F88400206880698B
:1034900040F0200021688861D4F8840028B32068B7
:1034A000006820F00100216808602068006940F28F
:1034B0006B3188432168086109F44040B0B120684D
:1034C000806820F4404021688860E06F28B10C4893
:1034D000E16F0865E06FFDF7A3FCA06F28B1084815
:1034E000A16F0865A06FFDF79BFC05E0012084F843
:1034F00081002046FFF7DFFE08E700BF06E7000077
:10350000214D000870B50446002500260CB90120A5
:1035100070BD606A00B900BFA06AB0F5800F00D12D
:1035200000BF8E49206888420CD08D4920688842AF
:1035300008D08C492068884204D0E0680F2801D95F
:103540000120E5E7204601F04DFC0646834920684E
:10355000884209D082492068884205D08149206884
:10356000884201D0082E0DD87C492068884207D0B7
:103570007B492068884203D07A492068884203D179
:10358000102E01D90120C3E7A06AB0F5800F1DD12C
:103590007249206888420DD071492068884209D05C
:1035A00070492068884205D0206BB0F5702F01D992
:1035B0000120ADE7206B10B9A089050400E0256B60
:1035C000E068B0EB154F01D90120A1E794F8810024
:1035D00028B9002084F88000204600F0C5F80220B9
:1035E00084F881002068006820F0010021680860EC
:1035F000A069B0F1806F0BD16068B0F5800F07D182
:10360000A06B28B92068006840F4805021680860E9
:10361000A16AE06908432843E16B0843E168084375
:1036200021688860616A606B0843A16B0843A169E7
:1036300008432169084361690843216A08436168B6
:103640000843E16C0843A1680843A16C0843A16DDD
:1036500008432168C860A06AB0F5800F4DD1206C86
:10366000012806D12068006840F400402168086005
:1036700005E02068006820F4004021680860606C64
:10368000012806D12068006840F480402168086065
:1036900005E02068006820F48040216808602F4918
:1036A000206888420AD02E492068884206D02D49D9
:1036B0002068884202D0B5F5702F0ED027492068C7
:1036C000884207D026492068884203D025492068CF
:1036D000884209D1B5F5F81F06D12068006840F48A
:1036E00000502168086005E02068006820F4005060
:1036F000216808602168E06A0864606888B9A06A87
:1037000038B92068806820F4C05040F40060216817
:1037100088602068806820F4C06040F48060216880
:1037200088602068006D20F00100216808656068ED
:1037300000F48000B0F5800F07D12068C06820F049
:103740000040616D08432168C8600020C4F884000F
:10375000012084F881000020DAE6000000300140FA
:1037600000380040003C0040704700002DE9F04167
:1037700004460E4615460027A06870B96068B0F58B
:10378000800F0AD1042084F881002B46324631464E
:10379000204600F0C9FABDE8F08100BF94F880002F
:1037A000012801D10220F6E7012084F8800000BF43
:1037B00094F88100012807D0022700BF002084F878
:1037C000800000BF3846E6E706B13DB9012700BFDB
:1037D000002084F8800000BF3846DCE70420603415
:1037E00084F8210000206062666025816581206187
:1037F000606120806080603CA068B0F5C02F05D17A
:103800002068006820F4006021680860E0680F28E4
:1038100004D9E06F8069B0F5804F0CD1E0680728CB
:1038200011D9E06F8069B0F5005F0CD0E06F80695E
:10383000B0F5804F07D0012700BF002084F880003A
:1038400000BF3846A7E72068806820F480402168E0
:103850008860E068072816D8E06F8069B0F5005FDF
:1038600005D1B4F86A00401C4008A4F86A00E06F73
:103870008069B0F5804F14D1B4F86A00C01C80088C
:10388000A4F86A000DE0E0680F280AD8E06F8069AC
:10389000B0F5804F05D1B4F86A00401C4008A4F888
:1038A0006A002648E16F08642548E16FC86325482F
:1038B000E16FC8640020E16F0865B4F86A30D4F89D
:1038C00000C00CF13001626EE06FFDF731FCE06F7B
:1038D000C069B0F5807F06D1206840686FF30F00A3
:1038E0002168486006E0206840686FF30F002843B5
:1038F000216848602068806840F4804021688860C2
:103900002068006940F450702168086120680068F0
:1039100040F00100216808606068B0F5800F05D1B3
:103920002068006840F400702168086000BF002033
:1039300084F8800000BF38462DE700006D4D000878
:10394000894D00083D4D0008704770472DE9F84F3C
:103950000446884691461D460A9E0027BA4600BF87
:1039600094F88000012802D10220BDE8F88F0120E0
:1039700084F8800000BFFDF7C3FD074694F881007E
:10398000012812D06068B0F5800F05D1A06818B981
:1039900094F88100042808D04FF0020A00BF0020EC
:1039A00084F8800000BF5046DFE7B8F1000F03D075
:1039B000B9F1000F00D045B94FF0010A00BF002057
:1039C00084F8800000BF5046CFE794F881000428B7
:1039D00002D0052084F881000020C4F88400C4F8D7
:1039E0006490A4F86A50A4F86850C4F85C80A4F805
:1039F0006250A4F8605020676067206840686FF3E9
:103A00000F002843216848602068006840F00100EA
:103A1000216808606068B0F5800F05D120680068F3
:103A200040F4007021680860E0680F284CD942E03B
:103A3000B4F8620088B12068406900F002000228F2
:103A40000BD1E06D006821680862E06D001DE06543
:103A5000B4F86200401EA4F86200B4F86A0088B1AD
:103A60002068406948F20801084058B12068006B9E
:103A7000616E0860606E001D6066B4F86A00401EEA
:103A8000A4F86A00701CB0B1FDF73AFDC01BB0424B
:103A900011D3204601F0C6F800BF002084F8800052
:103AA00000BFD4F8840040F48070C4F88400012082
:103AB00084F8810059E7B4F862000028B8D1B4F85E
:103AC0006A000028B4D10FE1E068072871D966E0E8
:103AD000B4F8620020B32068406900F002000228B8
:103AE0001ED1B4F8620001280ED9E06B60B1E06D20
:103AF000006821680862E06D001DE065B4F86200AE
:103B0000801EA4F862000BE0E06D00882168088444
:103B1000E06D801CE065B4F86200401EA4F862000D
:103B2000B4F86A0010B32068406900F46040E8B15E
:103B30002068406900F4004060B12068006B616E4D
:103B40000860606E001D6066B4F86A00801EA4F80C
:103B50006A000BE02068008E616E0880606E801C39
:103B60006066B4F86A00401EA4F86A00701CB0B128
:103B7000FDF7C6FCC01BB04211D3204601F052F83D
:103B800000BF002084F8800000BFD4F8840040F417
:103B90008070C4F88400012084F88100E5E6B4F860
:103BA0006200002894D1B4F86A00002890D19BE00C
:103BB000FFE790E0B4F8620058B32068406900F075
:103BC0000200022833D1B4F8620003280FD9E06B59
:103BD00040280CD9E06D006821680862E06D001D86
:103BE000E065B4F86200001FA4F862001FE0B4F8BA
:103BF000620001280ED9E06B60B1E06D0088216899
:103C00000884E06D801CE065B4F86200801EA4F8B2
:103C100062000CE0E06D0078216881F82000E06D22
:103C2000401CE065B4F86200401EA4F86200B4F8DD
:103C30006A0048B32068406900F4604020B32068FF
:103C4000406900F4004060B12068006B616E08605C
:103C5000606E001D6066B4F86A00001FA4F86A0078
:103C600020E02068406900F4C040B0F5005F0CD946
:103C70002068008E616E0880606E801C6066B4F8FB
:103C80006A00801EA4F86A000CE0206890F83000FA
:103C9000616E0870606E401C6066B4F86A00401E79
:103CA000A4F86A00701CB0B1FDF72AFCC01BB0423A
:103CB00011D3204600F0B6FF00BF002084F880003A
:103CC00000BFD4F8840040F48070C4F88400012060
:103CD00084F8810049E6B4F8620000287FF46AAFF6
:103CE000B4F86A000028F9D13B460022082120469A
:103CF000009601F084F828B1D4F8840040F0200048
:103D0000C4F88400204600F08DFF00BF002084F836
:103D1000800000BF012084F88100D4F8840008B13D
:103D2000012022E6002020E62DE9F04104460E465F
:103D300017461D464FF0000800BF94F88000012888
:103D400002D10220BDE8F081012084F8800000BF8C
:103D500094F88100012812D06068B0F5800F05D179
:103D6000A06818B994F88100042808D04FF0020820
:103D700000BF002084F8800000BF4046E2E70EB19B
:103D800007B145B94FF0010800BF002084F880005A
:103D900000BF4046D6E794F88100042802D00520F1
:103DA00084F8810000202C34A0652663A586E58672
:103DB000A763A587E5876064A06454F82C0C80682D
:103DC00020F4404054F82C1D8860E0680F2804D986
:103DD000E06F8069B0F5804F0CD1E068072812D9F8
:103DE000E06F8069B0F5005F0DD0E06F8069B0F5DD
:103DF000804F08D04FF0010800BF002084F88000F9
:103E000000BF40469EE7E06807282CD8A06F806975
:103E1000B0F5005F05D1B4F86200401C4008A4F87A
:103E20006200A06F8069B0F5804F05D1B4F86200E0
:103E3000C01C8008A4F86200E06F8069B0F5005FE4
:103E400005D1B4F86A00401C4008A4F86A00E06F8D
:103E50008069B0F5804F1FD1B4F86A00C01C80089B
:103E6000A4F86A0018E0E0680F2815D8A06F8069F0
:103E7000B0F5804F05D1B4F86200401C4008A4F8AA
:103E80006200E06F8069B0F5804F05D1B4F86A0038
:103E9000401C4008A4F86A0094F88100042806D168
:103EA0003548E16F08643548E16FC86305E0344880
:103EB000E16F08643348E16FC8633348E16FC86459
:103EC0000020E16F0865B4F86A30D4F800C00CF146
:103ED0003001626EE06FFDF72BF92068806840F4D6
:103EE0008040216888600020A16F0864A16FC863CA
:103EF000A16FC864A16F0865B4F86230D4F800C03F
:103F00000CF12002E16DA06FFDF712F9A06FC069FE
:103F1000B0F5807F06D1206840686FF30F002168FC
:103F2000486006E0206840686FF30F00284321686E
:103F300048602068806840F40040216888602068FC
:103F4000006940F45870216808612068006840F0FA
:103F50000100216808606068B0F5800F05D1206815
:103F6000006840F400702168086000BF002084F8F9
:103F7000800000BF4046E5E66D4D0008894D000811
:103F80007B4D0008B74D00083D4D00087047704755
:103F90007047042808D14FF0E021096941F004017D
:103FA0004FF0E022116107E04FF0E021096921F0B4
:103FB00004014FF0E0221161704770B504462546B8
:103FC000681EB0F1807F01D301200FE0681E4FF022
:103FD000E02148610F214FF0FF3002F05FF8002030
:103FE0004FF0E021886107200861002070BD0000CB
:103FF00030B502460B4600BF92F83C00012801D1C3
:10400000022030BD012082F83C0000BF10684168EA
:10401000106884680F4D1068A84203D00E4D1068D8
:10402000A84203D121F470015868014321F07001C6
:104030001868014324F080049868044310684160C4
:104040001068846000BF002082F83C0000BF00BF01
:10405000D7E70000000001400004014010B504460D
:104060000CB9012010BD94F83D0028B9002084F857
:104070003C00204600F00CF8022084F83D00211D91
:10408000206800F0FFFF012084F83D000020E9E7F0
:1040900070470146022081F83D000868008840F022
:1040A00001000A681080012081F83D00002070475F
:1040B0007047704701460022002391F8792091F85B
:1040C0007A3042EA030070472DE9F0410446206847
:1040D000C569206807682068866805F00F08B8F190
:1040E000000F0DD105F0200050B107F0200010B9ED
:1040F00006F0805020B1204601F005F9BDE8F081BE
:10410000B8F1000F72D05D48304018B907F49070D4
:1041100000287AD005F0010048B107F4807030B172
:10412000012021680862E06F40F00100E06705F0BF
:10413000020048B106F0010030B102202168086297
:10414000E06F40F00400E06705F0040048B106F0BD
:10415000010030B1042021680862E06F40F00200E5
:10416000E06705F0080078B107F0200028B906F0F4
:10417000805010B906F0010030B1082021680862B3
:10418000E06F40F00800E067E06F70B305F02000DA
:1041900040B107F0200010B906F0805010B1204661
:1041A00001F0B1F8E06F00F0080020B920688068E5
:1041B00000F0400018B3204601F085F820688068C0
:1041C00000F04000B8B12068806820F0400021680D
:1041D0008860606F58B12A48616F0865606FFCF7AE
:1041E0001FFE10B1606F016D88470DE00DE02046A5
:1041F000FFF75FFF08E02046FFF75BFF04E0204683
:10420000FFF757FF0020E06778E705F4801078B1EA
:1042100006F4800060B14FF480102168086220200D
:1042200084F8790084F87A002046FFF741FF65E7BB
:1042300005F0800048B107F0800010B906F40000D6
:1042400018B1204601F076FD58E705F0400030B186
:1042500007F0400018B1204601F045F84EE705F49C
:10426000000040B107F0804028B12068006820F0CD
:1042700080402168086000BF40E700000100001096
:10428000AF52000810B504460CB9012010BDA0695A
:1042900000B100E000BF94F8790028B9002084F84C
:1042A0007800204600F02AF8242084F8790020685D
:1042B000006820F0010021680860204601F068F8DD
:1042C000012800D1E2E7606B10B1204600F040FF0A
:1042D0002068406820F49040216848602068806829
:1042E00020F02A00216888602068006840F0010002
:1042F00021680860204600F0A0FFC7E710B586B02F
:1043000004461D492068884233D100BF1B4800681D
:1043100040F00200194908600846006800F00200F9
:10432000009000BF00BF00BF14481030006840F08C
:1043300010001249103108600846006800F01000B3
:10434000009000BF00BF4FF4404001900220029057
:104350000020039004900420059001A90848FCF770
:10436000A3FF2520FDF74EF9032211462520FDF776
:1043700059F906B010BD000000100140E044025899
:104380000004025810B5034693F87A00202867D13C
:1043900001B10AB9012010BD00BF93F878000128CF
:1043A00001D10220F7E7012083F8780000BF5966A9
:1043B000A3F86820A3F86A2000BF9868B0F5805F72
:1043C0000AD1186920B940F2FF10A3F86C001CE074
:1043D000FF20A3F86C0018E0986848B9186918B96C
:1043E000FF20A3F86C0010E07F20A3F86C000CE025
:1043F0009868B0F1805F08D1186918B97F20A3F8D8
:104400006C0002E03F20A3F86C0000BF0020D867DA
:10441000222083F87A0000BF002083F8780000BFD4
:104420001868806840F001001C68A0601868006887
:1044300000F0005060B11868006840F480701C689B
:1044400020601868806840F080501C68A06005E01B
:104450001868006840F490701C68206000209AE79B
:10446000022098E71D4A0168914236D11C4909880B
:1044700001F4004189BB1A49098801F4804171B1F6
:10448000184909780A2903D00021154A118024E02F
:104490001349098841F40041114A11801DE0114976
:1044A00009780D2906D10E49098841F480410C4A4A
:1044B000118012E00B490978094A1288C2F30D02F3
:1044C000094B995406490988491C054A118011462F
:1044D0000988C72901DD00211180704700100140C3
:1044E000140000241600002430A20024704700BFEE
:1044F000FEE7000008B500BF1E48006840F002005B
:104500001C4908600846006800F00200009000BFE7
:1045100000BF00BF184819498860084616498863DB
:1045200000BF17480860432048604021124881605E
:104530000021C1604FF4806101614900416189003F
:1045400081610021C1614FF40031016200214162AB
:10455000FCF7E6FC20B14FF4A4710AA001F094FD31
:10456000032211464620FDF75DF84620FDF74AF884
:1045700008BD0000D844025838000024240000245C
:10458000B80402402E2E5C4273705C6A785F6175DD
:1045900064696F5C617564696F2E630000B58FB0EC
:1045A00000BF1C48006840F000501A4908600846E7
:1045B000006800F00050009000BF00BF1020019084
:1045C000032002900020039001A91348FCF76CFE21
:1045D0001248134908600846FCF7A7FA20B140F2D8
:1045E000091110A001F050FD002006901620079040
:1045F00002200890002009900A90002206A908488D
:10460000FCF7EAF920B14FF4897106A001F03CFDF6
:104610000FB000BDE844025800000258007400408A
:10462000240000242E2E5C4273705C6A785F6175F2
:1046300064696F5C617564696F2E630010B5FFF784
:10464000ADFFFFF757FF01F017FC63217C2000F05E
:1046500071F80248FFF71DFD10BD0000B0000024F6
:104660002DE9F84305460026B04610E02C4850F8E6
:104670002600C0F3D3242A4850F8260040F6FF71E4
:1046800001EA400707B1641C08EB0438761CAE420F
:10469000ECD3234850F82500C0F3D324204850F829
:1046A000250040F6FF7101EA400707B1641C0021B4
:1046B0001C48FCF7DFFA1C48C0F80080446000206A
:1046C00019498860002119480173174802688068F9
:1046D00002EB00314FF4804213480C3001F018FC1B
:1046E00011488068001D104988600846026880688B
:1046F00002EB00314FF480420D4801F009FC0A48FA
:104700008068001D0849886000204FF4005301F1C3
:104710000C02014600900348FCF71CFABDE8F88340
:104720004065010824000024200100242081002489
:104730002C4100247FB504460D4600BF1648006892
:1047400040F01000144908600846006800F01000AE
:10475000009000BF00BF114811490860084644603E
:1047600000218160C56080218161FFF777FC20B165
:1047700040F225110BA001F087FC202001900020C1
:10478000039001A90648FFF733FC20B14FF496715E
:1047900004A001F079FC7FBDE844025800100040FD
:1047A000B00000242E2E5C4273705C6A785F6175E5
:1047B00064696F5C617564696F2E630000B587B0D2
:1047C00000BF1348006840F0200011490860084607
:1047D000006800F02000019000BF00BF00224FF4ED
:1047E00080610C48FCF786FE4FF480600290012047
:1047F0000390002004900320059002A90548FCF7CF
:1048000053FD012291020348FCF774FE07B000BD7E
:10481000E044025800140258704770472DE9F041F7
:1048200004460E4600274848006800F003000328AD
:1048300002D10120BDE8F08143482838006820F00B
:104840008060414928390860FCF75AFE054606E0B9
:10485000FCF756FE401B022801D90320EAE73A483C
:1048600028380068C0F3C0600028F1D100BF364886
:10487000006820F47C30216840EA01303249086049
:10488000A088401EC0F30800A168491E4FF47E4274
:1048900002EA41210843A189491ED20102EA0141ED
:1048A0000843217C491E120202EA0161084326499D
:1048B0001031086000BF2448001D006820F0C000CF
:1048C000616908432049091D08600846006820F016
:1048D0002000A16908431C49091D08602EB908463B
:1048E000006840F40020086012E0012E08D116484C
:1048F000001D006840F480101349091D086007E09E
:104900001148001D006840F400100F49091D08609F
:104910000D482838006840F080600B49283908604D
:10492000FCF7EEFD054606E0FCF7EAFD401B022819
:1049300001D903207EE7044828380068C0F3C0602E
:104940000028F1D0384675E7284402582DE9F04197
:1049500004460E4600274848006800F0030003287C
:1049600002D10120BDE8F08143482838006820F0DA
:104970008050414928390860FCF7C2FD054606E031
:10498000FCF7BEFD401B022801D90320EAE73A48A4
:1049900028380068C0F340700028F1D100BF3648C5
:1049A000006820F07C70218840EA0150324908609C
:1049B000A088401EC0F30800A168491E4FF47E4243
:1049C00002EA41210843A189491ED20102EA0141BC
:1049D0000843217C491E120202EA0161084326496C
:1049E0001831086000BF2448001D006820F44060B2
:1049F000616908432049091D08600846006820F4E1
:104A00000070A16908431C49091D08602EB90846B9
:104A1000006840F48000086012E0012E08D11648BA
:104A2000001D006840F400001349091D086007E0FC
:104A30001148001D006840F080700F49091D086092
:104A40000D482838006840F080500B49283908602C
:104A5000FCF756FD054606E0FCF752FD401B022818
:104A600001D903207EE7044828380068C0F340706D
:104A70000028F1D0384675E72844025808B500BF31
:104A80001C48006840F001001A49086008460068A8
:104A900000F00100009000BF00BF00BF164817499A
:104AA000C86708461449886300BF1548086053204A
:104AB0004860002110488160C1604FF4806101614D
:104AC000002141618161C1614FF400310162002127
:104AD0004162FCF725FA20B140F2CB1109A001F0A8
:104AE000D3FA022211462F20FCF79CFD2F20FCF761
:104AF00089FD08BDD8440258B891002430910024A3
:104B0000B80002402E2E5C4273705C6A785F61755B
:104B100064696F5C7732357178782E63000000002D
:104B200010B50248FEF7C8FB10BD0000309100240C
:104B300000B587B000BF2848006840F400502649FF
:104B400008600846006800F40050019000BF00BFF4
:104B5000642002900220039000200490059005201C
:104B6000069002A91D48FCF79FFB1D481D490860DF
:104B70004FF48000486000211A4881600721C1601D
:104B80004FF00071016149104161890081614FF06E
:104B90004051C16100210162416281620721C1620D
:104BA0004FF08041416300218163C163016441642E
:104BB0008164C164016541658165FEF7A3FC20B194
:104BC00040F2931108A001F05FFAFFF757FFFF20B2
:104BD00000F018F807B000BDF04402580010025869
:104BE00000340140309100242E2E5C4273705C6AC8
:104BF000785F617564696F5C7732357178782E63A0
:104C00000000000001B582B042F21070012301AA39
:104C100002A900900248FEF799FE9DF804000EBD1F
:104C200030910024026851690268926942F00802DA
:104C300003689A610268926942F0100203689A61FF
:104C40000268126822F0010203681A6002681269A1
:104C500040F26B339A4303681A610268926822F447
:104C6000404203689A6090F88120042A0ED001F037
:104C700020025AB1D0F8842042F08002C0F884208B
:104C80000268926942F0200203689A6190F88120DC
:104C9000032A21D001F040025AB1D0F8842042F01A
:104CA0000402C0F884200268926942F0400203685E
:104CB0009A61826AB2F5800F0ED101F080025AB17A
:104CC000D0F8842042F00202C0F884200268926981
:104CD00042F0800203689A6101F400725AB1D0F880
:104CE000842042F00102C0F884200268926942F4F4
:104CF000007203689A6101F480725AB1D0F884207E
:104D000042F00802C0F884200268926942F480727E
:104D100003689A610022A0F86220A0F86A20704718
:104D200070B50546AC6B00206234208120800120E4
:104D3000E077623C2046FEF7BEFA70BD70B50546CE
:104D4000AC6B2846FCF7E8F802280ED02046FFF7A7
:104D500069FFD4F8840040F01000C4F884000120FA
:104D600084F881002046FEF7A6FA70BD70B50446AF
:104D7000A56B2846FEF7E9FD70BD70B50446A56B2E
:104D80002846FFF705F970BD70B50546AC6B94F881
:104D9000810007280ED0E06FC069B0F5807F03D195
:104DA0002046FEF7D1FD05E02068006940F00800CC
:104DB0002168086170BD70B50546AC6B94F8810040
:104DC00007280ED0A06FC069B0F5807F03D12046C0
:104DD000FFF7DDF805E02068006940F00800216871
:104DE000086170BD10B501460124C86B04EB501377
:104DF000C868421CD01DC20802FB03F010BD2DE99B
:104E0000F04106460C4617469846069D0BE0681C86
:104E100048B12DB1FCF774FBA0EB0800A84202D901
:104E20000320BDE8F081306840692040A04201D1F4
:104E3000012000E00020B842E9D00020F1E77047EF
:104E400010B54FF4802105488160FEF75BFB20B16F
:104E500040F2A31102A001F017F910BD3091002417
:104E60002E2E5C4273705C6A785F617564696F5C5A
:104E70007732357178782E630000000010B500217C
:104E800005488160FEF73EFB20B14FF4D67103A0C8
:104E900001F0FAF810BD0000309100242E2E5C4283
:104EA00073705C6A785F617564696F5C77323571C5
:104EB00078782E630000000010B5FCF727FB10BDCA
:104EC00010B5CCB04648006820F0040044490860A2
:104ED00000BF0020019042480C30006840F4404080
:104EE0003F490C3108600846006800F440400190DA
:104EF00000BF00BF00BF3A480C30006800F400500B
:104F0000B0F5005FF7D13748006820F01800354948
:104F1000086034484838006820F00300801C31499C
:104F2000483908600520399000043A9001203B90F0
:104F300002204290022139A88162C16240210163AE
:104F4000022141638163C1630C210164002141643A
:104F50008164FDF745FE3F20319003203290002010
:104F600033900820349040203590369000013790DF
:104F700040203890022131A8FDF7A0FB1A4802908A
:104F800019200B9096210C9102210D910E91062172
:104F90000F91002110914FF4007111910021129195
:104FA000002020904FF48070219000012290001189
:104FB00027902E9002A8FCF7E5FD0C4800684FF4FE
:104FC0007A71B0FBF1F42046FEF7F7FF0420FEF7FC
:104FD000E0FF00221146501EFCF724FB4CB010BD30
:104FE0000C48025870440258190042200000002466
:104FF0002048006840F470001E4908601E480068A0
:1050000040F001001C49086000201B491031086075
:1050100019480068194908401749086000201649D6
:1050200018310860091D0860091D086012492831FF
:105030000860091D0860091D0860091D0860091D38
:105040000860091D0860091D0860091D08600A48FC
:10505000006820F48020084908600020064960317B
:105060000860012006490860C006024980390860CE
:105070007047000088ED00E0004402587FEDF6EA3A
:105080000881005110B500220288294B98420ED0A9
:10509000B0F1804F0BD0274B984208D0264B984256
:1050A00005D0264B984202D0254B984203D122F0DE
:1050B00070024B681A431E4B984217D0B0F1804FD4
:1050C00014D01C4B984211D01B4B98420ED01B4B56
:1050D00098420BD01A4B984208D01A4B984205D0F0
:1050E000194B984202D0194B984203D122F44072D6
:1050F000CB681A4322F080034C6943EA0402028021
:105100008B68C3620B880385094B98420BD00C4B0C
:10511000984208D00B4B984205D00B4B984202D0D6
:105120000A4B984201D10B8A03860123436110BDCB
:10513000000001400004004000080040000C004056
:10514000000401400040014000440140004801408B
:1051500090F8341001F0010139B10168496821F477
:105160000031826B11430268516090F8341001F0F5
:10517000020139B10168496821F48031C26B1143E1
:105180000268516090F8341001F0040139B10168EF
:10519000496821F48021026C11430268516090F843
:1051A000341001F0080139B10168496821F4004167
:1051B000426C11430268516090F8341001F0100104
:1051C00039B10168896821F48051826C1143026809
:1051D000916090F8341001F0200139B101688968BC
:1051E00021F40051C26C11430268916090F83410B0
:1051F00001F0400199B10168496821F48011026D04
:10520000114302685160016DB1F5801F07D101683B
:10521000496821F4C001426D11430268516090F861
:10522000341001F0800139B10168496821F400218E
:10523000826D114302685160704738B504460025FD
:105240000020E067FCF75CF905462068006800F084
:10525000080008280CD16FF07E402B4600224FF446
:1052600000110090204600F0A6FD08B1032038BDD3
:105270002068006800F0040004280CD16FF07E4024
:105280002B4600224FF480010090204600F093FD51
:1052900008B10320EBE7202084F8790084F87A0035
:1052A00000BF002084F8780000BF00BFDFE770B5C2
:1052B0000546AC6B0020A4F86A00A4F86200204602
:1052C000FEF7F7FE70BD0168096821F4907102686D
:1052D00011600168896821F0010102689160202154
:1052E00080F87A10704710B504462068006820F0F6
:1052F000400021680860202084F879002046FFF7EC
:10530000F5F8002010BD2DE9F0410446B4F86C70AA
:1053100094F87A00222833D12068858CA068B0F5F3
:10532000805F09D1206938B9666E05EA07003080D0
:10533000606E801C606605E0F8B22840626E511C09
:1053400061661070B4F86A00401E80B2A4F86A006A
:10535000A0B92068006820F4907021680860206877
:10536000806820F0010021688860202084F87A009D
:105370002046FFF777F80020BDE8F0810020FBE72A
:105380002068008B40F00800216808830220F3E7C2
:105390002DE9F04F89B0044600254FF08008A9465A
:1053A000AA4600200890FA492068884201D10120CD
:1053B00000E0002000B100E000BFA06AB0F1005F93
:1053C00000D100BF2169A068084361690843E16911
:1053D00040EA0105A06A054320680068ED490840DD
:1053E0002843216808602068406820F44050E16844
:1053F000084321684860A569E5492068884201D1D1
:10540000012000E0002008B9206A0543A06AB0F13D
:10541000005F03D1D4E90B0108430543206880688D
:10542000DD4908402843216888602068C06A20F070
:105430000F00616A08432168C86200BFD74920682D
:10544000884224D1D648006800F03800182814D0CB
:1054500005DC48B108280AD0102817D10AE0202816
:105460000ED0282812D10EE04FF001080EE04FF0C8
:1054700004080BE04FF0400808E04FF0080805E092
:105480004FF0100802E04FF0200800BF17E1C549B7
:10549000206888421DD1C248006800F00700062835
:1054A00016D2DFE800F00306090C0F124FF00008D7
:1054B0000EE04FF004080BE04FF0400808E04FF01A
:1054C000080805E04FF0100802E04FF0200800BF88
:1054D000F5E0B549206888421DD1B148006800F068
:1054E0000700062816D2DFE800F00306090C0F12A9
:1054F0004FF000080EE04FF004080BE04FF04008BA
:1055000008E04FF0080805E04FF0100802E04FF007
:10551000200800BFD3E0A549206888421DD1A048DB
:10552000006800F00700062816D2DFE800F0030646
:10553000090C0F124FF000080EE04FF004080BE0CA
:105540004FF0400808E04FF0080805E04FF0100861
:1055500002E04FF0200800BFB1E095492068884282
:105560001DD18F48006800F00700062816D2DFE83A
:1055700000F00306090C0F124FF000080EE04FF088
:1055800004080BE04FF0400808E04FF0080805E081
:105590004FF0100802E04FF0200800BF8FE085496F
:1055A0002068884224D17E48006800F0380018281E
:1055B00014D005DC48B108280AD0102817D10AE019
:1055C00020280ED0282812D10EE04FF001080EE05E
:1055D0004FF004080BE04FF0400808E04FF00808D7
:1055E00005E04FF0100802E04FF0200800BF66E031
:1055F0007149206888421DD16948006800F00700A1
:10560000062816D2DFE800F00306090C0F124FF04F
:1056100000080EE04FF004080BE04FF0400808E0EF
:105620004FF0080805E04FF0100802E04FF02008A6
:1056300000BF44E06149206888421DD15848006895
:1056400000F00700062816D2DFE800F00306090C78
:105650000F124FF000080EE04FF004080BE04FF07F
:10566000400808E04FF0080805E04FF0100802E09D
:105670004FF0200800BF22E04549206888421ED133
:105680004748001D006800F00700062816D2DFE832
:1056900000F00306090C0F124FF002080EE04FF065
:1056A00004080BE04FF0400808E04FF0080805E060
:1056B0004FF0100802E04FF0200800BF00BF00BF0D
:1056C00033492068884201D1012000E000200028F1
:1056D0005DD00025B8F1100F33D009DCB8F1020F0E
:1056E00010D0B8F1040F11D0B8F1080F2ED117E087
:1056F000B8F1200F27D0B8F1400F0CD0B8F1800FCF
:1057000024D124E0FBF7FCFF054623E005A8FCF7C5
:105710000DF8069D1EE002A8FCF71EF9039D19E096
:105720001F4854380068C0F3401040B11C4854383A
:105730000068C0F3C101224820FA01F500E0204DC5
:1057400008E0204D06E04FF4004503E000BF0120D3
:10575000089000BF00BF002D0AD0606800EB400039
:10576000A84203D860680003A84202D20120089032
:10577000D4E2B8F1100F7CD026DCB8F1020F2DD0A6
:10578000B8F1040F52D0B8F1080F73D19EE03FE199
:10579000000C0058F369FFCFFFF4FF110010014027
:1057A000544402580044004000480040004C00406F
:1057B000005000400014014000780040007C004090
:1057C0000090D00300093D00B8F1200F7DD0B8F162
:1057D000400F54D0B8F1800FD7D109E1FBF790FF0B
:1057E00000270646FB49606A31F810C062463B4616
:1057F00030463946FAF7C0FD4FF480760022034662
:10580000A3FB060701FB067103FB0213616849084D
:10581000064671185A41CDE90012666832460023E7
:1058200008460199FAF7A8FD0546E4E005A8FBF74C
:105830007DFFDDF818C0E749606A31F810B05A46BC
:10584000002360461946FAF797FD4FF4807C00224A
:10585000A0FB0C3B01FB0CB100FB02106168490886
:105860005E1840EB0201D4F804C0624600233046C3
:1058700001E079E0BBE0FAF77FFD0546BBE002A856
:10588000FCF76AF8DDF80CC0D249606A31F810B054
:105890005A46002360461946FAF76EFD4FF4807CA5
:1058A0000022A0FB0C3B01FB0CB100FB0210616865
:1058B00049085E1840EB0201D4F804C06246002398
:1058C0003046FAF759FD054695E06EE0C24800689B
:1058D000C0F3401038B3C0480068C0F3C101BF48EE
:1058E00020FA01FCBB49606A31F810B05A46002327
:1058F00060461946FAF740FD4FF4807C0022A0FB79
:105900000C3B01FB0CB100FB0210616849085E18FA
:1059100040EB0201D4F804C0624600233046FAF797
:105920002BFD05461FE0AB49606A31F810C06246A6
:105930000023AA481946FAF71FFD4FF4807C002285
:10594000A0FB0C3B01FB0CB100FB02106168490895
:105950005E1840EB0201D4F804C0624600233046D2
:10596000FAF70AFD054646E09A49606A31F810C028
:10597000624600239A481946FAF7FEFC4FF4807CF1
:105980000022A0FB0C3B01FB0CB100FB0210616884
:1059900049085E1840EB0201D4F804C062460023B7
:1059A0003046FAF7E9FC054625E08A49606A31F895
:1059B00010C0624600234FF400401946FAF7DCFCA1
:1059C0004FF4807C0022A0FB0C3B01FB0CB100FBE0
:1059D0000210616849085E1840EB0201D4F804C067
:1059E000624600233046FAF7C7FC054603E000BFD5
:1059F0000120089000BF00BFB5F5407F05D3B5F585
:105A0000801F02D22068C56088E10120089085E1EE
:105A1000E069B0F5004F7CD1B8F1100F7AD00CDC02
:105A2000B8F1000F13D0B8F1010F21D0B8F1040F75
:105A30002FD0B8F1080F6ED151E0B8F1200F6BD024
:105A4000B8F1400F38D0B8F1800F64D197E0FCF77F
:105A500079FF604A616A32F81110B0FBF1F0400042
:105A6000616800EB5100B0FBF1F01FFA80FA89E0A9
:105A7000FCF77EFF574A616A32F81110B0FBF1F073
:105A80004000616800EB5100B0FBF1F01FFA80FAB2
:105A900078E005A8FBF74AFE06994E4A606A32F89C
:105AA0001000B1FBF0F04000616800EB5100B0FB6A
:105AB000F1F01FFA80FA65E002A8FBF74DFF0399A9
:105AC000444A606A32F81000B1FBF0F040006168AF
:105AD00000EB5100B0FBF1F01FFA80FA52E03E48B3
